:020000041000EA
:1000000000B5324B212058609868022188439860DF
:10001000D860186158612E4B002199600221596106
:100020000121F02299502B49196001219960352056
:1000300000F044F80222904214D00621196600F024
:1000400034F8196E01211966002018661A6600F04E
:100050002CF8196E196E196E052000F02FF8012189
:100060000842F9D1002199601B49196000215960AB
:100070001A491B48016001219960EB211966A021F2
:10008000196600F012F800219960164914480160C1
:100090000121996001BC002800D000471248134993
:1000A000086003C880F30888084703B5996A0420EC
:1000B0000142FBD001200142F8D103BD02B5186610
:1000C0001866FFF7F2FF186E186E02BD00000240BE
:1000D000000000180000070000035F00212200005C
:1000E000F4000018222000A00001001008ED00E03C
:1000F00000000000000000000000000074B24E7A12
:1001000000200420F7010010C3010010C5010010F9
:10011000C1010010C1010010C1010010C101001097
:10012000C1010010C1010010C1010010C701001081
:10013000C1010010C1010010C9010010CB01001065
:10014000CD010010CD010010CD010010CD01001037
:10015000CD010010CD010010CD010010CD01001027
:10016000CD010010CD010010CD010010CD01001017
:10017000CD010010CD010010CD010010CD01001007
:10018000CD010010CD010010CD010010CD010010F7
:10019000CD010010CD010010CD010010CD010010E7
:1001A000CD010010CD010010CD010010CD010010D7
:1001B000CD010010CD010010CD010010CD010010C7
:1001C00000BE00BE00BE00BE00BE00BEEFF3058054
:1001D000103800BEF2EB887168AD001088AD0010D9
:1001E0003402001090A31AE700201F49086006C8D7
:1001F00081F3088810471D48006800282FD10DA4FE
:100200000ECC002902D000F012F8F9E71849194A7B
:10021000002000E001C19142FCD1174988471749ED
:1002200088471749884700BEFDE701C901C29A42C5
:10023000FBD3704788AD0010C0000020C013002021
:1002400088C00010000004200000042088C00010B6
:10025000001004200010042000000000704709482E
:1002600004F0E0FC0047000008ED00E0000000D0D2
:10027000C01300209CEE0120B5390010A918001011
:10028000713900105756000006005250ABB360534E
:1002900010A6001006005250861C030220A6001073
:1002A000060052505422A29D28A60010050052506C
:1002B000DE65F46888C00010F8B5C0460448054BF8
:1002C00010B5834203D0044B002B00D0984710BDDB
:1002D000C0130020C013002000000000064807499A
:1002E000091A8B10C90FC91810B5491003D0044B57
:1002F000002B00D0984710BDC0130020C013002071
:100300000000000010B5074C2378002B09D1FFF73F
:10031000D5FF054B002B02D0044800E000BF0123AD
:10032000237010BDC8140020000000007896001053
:10033000054B10B5002B03D00449054800E000BF71
:10034000FFF7CCFF10BDC04600000000CC14002019
:100350007896001003000800994200DD18007047ED
:1003600003000800994200DA1800704770B584B0A5
:10037000050014000801401AC0001E00190004F016
:100380007DFC28602001001BC000310004F076FCD9
:100390006860280004B070BDF0B5CE46474680B511
:1003A00085B006001D00016091460C9B9F00124B1A
:1003B000FB58984610005843104904F05FFC0400B5
:1003C0000F4BFF58380068430E4904F057FC2418BF
:1003D000746048467843094904F050FC04004046E4
:1003E0006843064904F04AFC2418B460300005B0A4
:1003F0000CBC90469946F0BD2CE601201027000069
:100400008CE00120F0D8FFFFF0B5D6464F464646B7
:10041000C0B584B0060092461D0089460C9B9F0023
:10042000134BFB58984608005843124904F026FC29
:100430000400114BFF5838006843104904F01EFCBB
:10044000241834605346736048467843094904F0E1
:1004500015FC040040466843064904F00FFC2418CC
:10046000B460300004B01CBC90469946A246F0BD72
:100470002CE60120102700008CE00120F0D8FFFFBF
:1004800082B084B0059343430698009041435B18C3
:1004900007985043181804B002B0704782B0019119
:1004A00000280CDB0B1E0ADBEF2808DCEF2906DC3A
:1004B0000901CB1A1B01C0184000024BC25202B006
:1004C0007047C0468C1E0020F0B5D6464F464646C3
:1004D000C0B586B002AC029003910500121A904696
:1004E0000E005F1A04AB06CC06C34346DA179B180E
:1004F00053409A46FA17BB18534099469A4522DD55
:1005000025487843414604F0B9FB070000240EE07B
:100510000120404203006343EB1804933B00634314
:1005200058431D4904F0AAFB301805900134A24538
:100530002CDD1A4A04980599FFF7B0FF4346002BBB
:10054000E6DD0120E6E7144843465843390004F04D
:1005500095FB804600240EE00120404203006343E7
:10056000F31805934346634358430B4904F086FB55
:10057000281804900134A14508DD084A049805991B
:10058000FFF78CFF002FE7DD0120E7E706B01CBC7A
:1005900090469946A246F0BD10270000FFFF0000DC
:1005A000F0B5DE4657464E464546E0B595B008AC38
:1005B0000890099106A90692079320AB1D8812ABFB
:1005C000220041CA41C310AB0A0041CA41C30EAB6D
:1005D0001EAA41CA41C3079A099B9A4213DA08220C
:1005E00012A90AA805F052FF082210A90CA805F0CC
:1005F0004DFF08220CA912A805F048FF08220AA9FD
:1006000010A805F043FF0F9B139A934213DA0822B8
:1006100012A90AA805F03AFF08220EA90CA805F0B5
:1006200035FF08220CA912A805F030FF08220AA9FC
:100630000EA805F02BFF0F9B119A934213DA0822A4
:1006400010A90AA805F022FF08220EA90CA805F09F
:100650001DFF08220CA910A805F018FF08220AA9FE
:100660000EA805F013FF119B9946139B9A464B4623
:1006700052469A1A00920F9FFB1A019350463F1A56
:10068000109B129883460293181A424C6043110043
:1006900004F0F4FA04900E9E5A46B01A60433900F2
:1006A00004F0ECFA0390029BF01A6043019904F005
:1006B000E5FA05900026A84601E0AA460136009B0F
:1006C0009E4227DA33490498704304F0D7FA58441D
:1006D000040030490398704304F0D0FA58440700EE
:1006E00001002000FFF736FE050039002000FFF76B
:1006F00037FE471B00242B0055469A46BC42DCDCE3
:100700005346E0180C90A9190D914246FFF7C6FE1A
:100710000134F3E70026039B9A460CE04B46E018B1
:100720000C90A9190D914246FFF7B8FE0134BC4266
:10073000F4DDA9460136019B9E4223DA1549504655
:10074000009B584304F09AFA58440400114950465B
:10075000704304F093FA24180E490598704304F08E
:100760008DFA029B1F1839002000FFF7F3FD0500EA
:1007700039002000FFF7F4FD471B00242B004D46F5
:100780009946D4E715B03CBC90469946A246AB4684
:10079000F0BDC0461027000010B51400584304F007
:1007A0006DFA001910BD002914DB002A14DB0A2998
:1007B00014DC0A2A14DC0A2908D00A2A08D093007B
:1007C0009A18520051184900085A04E00139F4E718
:1007D000013AF4E7002070470020FCE70020FAE728
:1007E0000020F8E7F0B5DE4657464E464546E0B5F0
:1007F000B9B022AC2290239120A920922193459B4D
:100800009A46469B9B4636AA4AAB21CB21C234AAC4
:100810004CAB21CB21C232AA4EAB21CB21C230AB93
:10082000220021CA21C32EAB0A0021CA21C32CAB4E
:1008300042AA21CA21C3219A239B9A422BDA082279
:1008400030A924A805F022FE08222EA926A805F02A
:100850001DFE082226A930A805F018FE082224A9AA
:100860002EA805F013FE082236A928A805F00EFED2
:10087000082234A92AA805F009FE08222AA936A8C8
:1008800005F004FE082228A934A805F0FFFD479BC7
:10089000489A479248932D9B319A93422BDA08222B
:1008A00030A924A805F0F2FD08222CA926A805F0FD
:1008B000EDFD082226A930A805F0E8FD082224A9AC
:1008C0002CA805F0E3FD082236A928A805F0DEFDD6
:1008D000082232A92AA805F0D9FD08222AA936A89B
:1008E00005F0D4FD082228A932A805F0CFFD479BCA
:1008F000499A479249932D9B2F9A93422BDA0822CB
:100900002EA924A805F0C2FD08222CA926A805F0CE
:10091000BDFD082226A92EA805F0B8FD082224A9AD
:100920002CA805F0B3FD082234A928A805F0AEFDD7
:10093000082232A92AA805F0A9FD08222AA934A86C
:1009400005F0A4FD082228A932A805F09FFD489BC8
:10095000499A489249932F9B0893319A0992991A80
:100960000D912D9EF31A1393B61A2E9F1797309B55
:100970000C93F81AD64C6043894604F07FF918901E
:100980002C9D0C9BE81A6043310004F077F90F901E
:10099000E81B6043139B9846190004F06FF9199007
:1009A0004799CC4804F06AF90A904899C94804F07C
:1009B00065F914904999C74804F060F90500C54CE1
:1009C000369A62431000479904F058F90B90349A14
:1009D00062431000489904F051F91590329A62432D
:1009E0001000499904F04AF9070037986043479985
:1009F00004F044F90E9035986043489904F03EF9AC
:100A0000169033986043499904F038F90400149A19
:100A10000A9BD01A494604F031F91A900A9BE81A49
:100A2000310004F02BF91090149AA81A414604F0F2
:100A300025F91B90159D0B9AA81A494604F01EF93A
:100A40001C900B9AB81A310004F018F91190781B19
:100A5000414604F013F91D90169D0E9FE81B494670
:100A600004F00CF91E90E01B310004F007F912901D
:100A7000601B414604F002F91F90002399466DE087
:100A8000012558E001245DE0ED00FF222A4000022C
:100A9000F8256D012840024365032A4312B2E41091
:100AA00007200440224392B22A982B99FFF7F6FCC4
:100AB000013646454FDC019B9B192A93099B4B4409
:100AC0002B9343465C1C079B069A9B1A210030001F
:100AD000FFF762FE0500039B029A9B1A210030007B
:100AE000FFF75AFE0700059B049A9B1A210030006D
:100AF000FFF752FE04002900380004F0BFF8070099
:100B00002900200004F0BAF8020039004498FFF7E9
:100B10004AFE0300C0101F273840DC009A1214431D
:100B2000382214401B121F4053465843594604F0C4
:100B3000A5F8051EA4DD50466043594604F09EF812
:100B4000041E9FDD50467843594604F097F800286C
:100B50009ADC012098E701239C46E1440D9B9945CE
:100B600048DA1A9B4A4653431E000A9A9446664442
:100B70000796109B49464B431F00674406971C9BF2
:100B80004B430B9A944663440393119B4B4363443A
:100B900002931E9B4B4318000E9A944660440590A6
:100BA000129B4B431C0064440494494918984D46D9
:100BB000684304F063F80C9D2C1845490F984A4689
:100BC000504304F05BF80200AC4662440192944248
:100BD0000BDA049B059804900593029B03990291FC
:100BE00003930696079701941400019BE31A984615
:100BF00000265EE70023994671E0012558E00124B4
:100C00005DE0ED00FF222A400002F8256D0128403A
:100C1000024365032A4312B2E41007200440224332
:100C200092B22A982B99FFF739FC0136464553DCDE
:100C3000019B9B192A93089B4B442B9343465C1CB6
:100C4000079B069A9B1A21003000FFF7A5FD0500BF
:100C5000039B029A9B1A21003000FFF79DFD0700BD
:100C6000059B049A9B1A21003000FFF795FD0400B4
:100C70002900380004F002F807002900200003F0E2
:100C8000FDFF020039004498FFF78DFD0300C010FE
:100C90001F273840DC009A121443382214401B12DC
:100CA0001F4053465843594603F0E8FF051EA4DD94
:100CB00050466043594603F0E1FF041E9FDD504655
:100CC0007843594603F0DAFF00289ADC012098E7C0
:100CD000102700008096980001239C46E144139B56
:100CE00099455FDA109A13000D9C63430A998C466C
:100CF000634449464A439E1807961B9B4B431F007B
:100D0000149A944667440697119A130063430B990B
:100D10008C46634449464A439B1803931D9B4B43AF
:100D20001A001598844662440292129A1300634393
:100D30000E98844663444A43981805901F9B4B4382
:100D40001D0016998C46654404951A490F9D28008C
:100D5000604303F093FF0C9C2418164928004A4670
:100D6000504303F08BFF2418124919984A46504308
:100D700003F084FF020017998C466244019294426A
:100D80000BDA049B059804900593029B039902914A
:100D900003930696079701941400019BE31A984663
:100DA000002643E739B03CBC90469946A246AB4684
:100DB000F0BDC04610270000F0B5D6464F46464667
:100DC000C0B5B2B00023984643460B2B00DD9EE031
:100DD0001BAB9A465C23424653435049C9185C22D8
:100DE000504605F053FB12AF53463A0013CB13C2E3
:100DF00015AC220023CB23C218AD21AB2A0043CB74
:100E000043C2474B1B6899460093129953465A6850
:100E10009B683800FFF7C0FA4B460093159962684B
:100E2000A3682000FFF7B8FA4B46009318996A6848
:100E3000AB682800FFF7B0FA3A4B1B68994602AB43
:100E40009A464B46009312997A68BB685046FFF762
:100E5000DBFA3B00524643CA43C34B460093159905
:100E60006268A3685046FFF7CFFA2300524643CA90
:100E700043C34B46009318996A68AB685046FFF726
:100E8000C3FA2B00524643CA43C3BB68264A944662
:100E90006344BB60A2686244A260524692686244A6
:100EA000AA6012997A6806A8FFF760FA1599626835
:100EB000A36808A8FFF75AFA18996A68AB680AA8E5
:100EC000FFF754FA069878300C9007997824611A45
:100ED0000D91089A78320E92099BE31A0F930A9D9E
:100EE000783510950B9D641B1194FFF7EDFA109A5D
:100EF000119B0E980F99FFF7E7FA0C9A0D9B10982B
:100F00001199FFF7E1FA01239C46E0445CE732B017
:100F10001CBC90469946A246F0BDC046FC0B002082
:100F2000781800207C180020B80B0000F0B5DE46D1
:100F300057464E464546E0B5C1B00023994602E00B
:100F400001239C46E1444B460B2B00DDEAE029AB34
:100F50009A465C234A4653437649C9185C22504658
:100F600005F094FA17AF3A00534623CB23C21AADCB
:100F70002A0043CB43C21DAE2FAB320013CB13C2AA
:100F800020AB984632AB424613CB13C26A4B1B6868
:100F90009B460093179953465A689B683800FFF7A1
:100FA000FBF95B4600931A996A68AB682800FFF763
:100FB000F3F95B4600931D997268B3683000FFF740
:100FC000EBF95E4B1B689A46009317997A68BB68E9
:100FD00006A8FFF719FA3B0006AA13CA13C3534623
:100FE00000931A996A68AB6806A8FFF70DFA2B0000
:100FF00006AA13CA13C3534600931D997268B368B7
:1010000006A8FFF701FA330006AA13CA13C3BB6888
:101010004B4A944663440393BB60AA6862440492BB
:10102000AA60089961440591B160584600902099E2
:10103000404642688368FFF7AFF950460090209918
:1010400040464268836806A8FFF7DEF9404606ABD3
:1010500019001CC91CC0179880461A988446E044A1
:1010600003211D9803F00AFE404423A988462390DB
:101070007B686D685D197068032103F0FFFD2D1812
:1010800046467560039B049A944663441D00032101
:10109000059803F0F3FD2D18B56026AB424613CA40
:1010A00013C327AB6A4603CB03C2269B209807993C
:1010B000089AFFF7E5F9002800DB41E71799189A2D
:1010C000199B0BA8FFF752F91A991B9A1C9B0DA8A4
:1010D000FFF74CF91D991E9A1F9B0FA8FFF746F9C1
:1010E0000B98783011900C997824611A12910D9A0E
:1010F000783213920E9BE31A14930F9D7835159551
:10110000109D641B1694FFF7DFF9159A169B139830
:101110001499FFF7D9F9119A129B15981699FFF7B0
:10112000D3F90DE741B03CBC90469946A246AB4688
:10113000F0BDC046FC0B0020781800207C18002071
:10114000B80B0000F0B5DE4657464E464546E0B5C2
:10115000C3B00023994602E001239C46E1444B467C
:101160000B2B00DDE2E02BAB9A465C234A4653434F
:101170007249C9185C22504605F088F919AF3A0047
:10118000534623CB23C21CAD2A0043CB43C21FAE20
:1011900031AB320013CB13C222AB984634AB42467C
:1011A00013CB13C2664B1B689B4600931999534699
:1011B0005A689B683800FFF7EFF85B4600931C996C
:1011C0006A68AB682800FFF7E7F85B4600931F9951
:1011D0007268B3683000FFF7DFF85A4B1B689A4615
:1011E000009319997A68BB6808A8FFF70DF93B00CE
:1011F00008AA13CA13C3534600931C996A68AB68C4
:1012000008A8FFF701F92B0008AA13CA13C3534615
:1012100000931F997268B36808A8FFF7F5F83300C8
:1012200008AA13CA13C3BB68474A9446634405938C
:10123000BB60AA6862440692AA600A996144079159
:10124000B160584600902299404642688368FFF793
:10125000A3F850460090229940464268836808A847
:10126000FFF7D2F8404608AB19001CC91CC01998FA
:1012700080461C988446E04403211F9803F0FEFC3E
:10128000404425A9884625907B686D685D19706883
:10129000032103F0F3FC2D1846467560059B069A62
:1012A000944663441D000321079803F0E7FC2D18C2
:1012B000B56028AB424613CA13C329AB6A4603CBB9
:1012C00003C2289B229809990A9AFFF7D9F80028A7
:1012D00000DB41E719991A9A1B9B0DA8FFF746F806
:1012E0001C991D9A1E9B0FA8FFF740F81F99209A82
:1012F000219B11A8FFF73AF80D9878300E997825C0
:10130000691A0F9A7832109BEB1A119E783617AC37
:101310001796129EAD1B18952BAE5825755B02953E
:101320006D46C0CCC0C5FFF73BF915E743B03CBCE8
:1013300090469946A246AB46F0BDC046FC0B002045
:10134000781800207C180020B80B0000F0B5DE46AD
:1013500057464E464546E0B5C3B00023059321E00D
:10136000012636E101253CE1F600FF23334000026F
:10137000F8225201104003436A0313431BB2ED10DD
:10138000072005402B439BB2029314AB6A4603CB64
:1013900003C2129A139B10981199FFF701F9059B4C
:1013A00001330593059B0B2B00DD24E12BAB9A4603
:1013B0005C23059A53439349C9185C22504605F0B3
:1013C00065F816AB99461A00534623CB23C219AFD2
:1013D0003A0023CB23C21CAE31AB320023CB23C255
:1013E0001FAB984634AB424623CB23C237AB22AA6D
:1013F00013CB13C2844B1B689B460093169953462C
:101400005A689B684846FEF7C7FF5B4600931999E8
:101410007A68BB683800FEF7BFFF5B4600931C99F3
:101420007268B3683000FEF7B7FF784B1B689A46C6
:1014300006AC009316994B465A689B682000FEF74D
:10144000E3FF4B46220023CA23C353460093199956
:101450007A68BB682000FEF7D7FF3B00220023CA52
:1014600023C3534600931C997268B3682000FEF7AB
:10147000CBFF3300220023CA23C35B46009322998B
:10148000239A249B22A8FEF787FF534600932299B4
:10149000239A249B2000FEF7B7FF22AB220023CA29
:1014A00023C34B469B685A4A944663444A4693601A
:1014B000BB686344BB60B3686344B360A3686344C0
:1014C0001E0024935B4600931F9943465A689B680D
:1014D0004046FEF761FF534600931F9943465A6802
:1014E0009B682000FEF790FF4346220023CA23C3D7
:1014F00025AB22AD07CD07C326AB6A4603CB03C29B
:10150000259B1F986168A268FEF7BAFF002800DBE0
:1015100045E71699179A189B0AA8FEF727FF19990D
:101520001A9A1B9B0CA8FEF721FF1C991D9A1E9B63
:101530000EA8FEF71BFF0A9B783310930B9A7823B3
:101540009A1A11920C9A783212920D9A9A1A139250
:101550000E9A783214920F9A9B1A15932D4B1A6893
:101560002299541A5A682399551A29959868861B06
:101570002A9629AB6A4603CB03C223001F98209901
:10158000219AFEF77DFF070064436D43641976439B
:10159000A01903F083FE03F0D5FE03F097FE44018B
:1015A000241AA4002418E4002BAA5823D35AD810D4
:1015B0001F221040DD0099120D4338210D401B12EF
:1015C0001A4090467843210003F058FB061E00DCC9
:1015D000C6E628007843210003F050FB051E00DC1E
:1015E000C0E640467843210003F048FB002800DDB8
:1015F000BAE60120B8E643B03CBC90469946A24604
:10160000AB46F0BDFC0B0020781800207C180020B1
:10161000B80B00004C100020F0B5DE4657464E4691
:101620004546E0B5CDB000230E9302E00E9B01339A
:101630000E930E9B0B2B00DD24E135AB9B465C2308
:101640000E9A53439349C9185C22584604F01EFF72
:1016500020AB99461A005B4623CB23C223AF3A0046
:1016600023CB23C226AE3BAB320023CB23C229AB14
:1016700098463EAB424623CB23C241AB2CAA13CBA8
:1016800013C2854B1B689A46009320995B465A68A3
:101690009B684846FEF780FE5346009323997A687C
:1016A000BB683800FEF778FE5346009326997268AF
:1016B000B3683000FEF770FE784B1B689B4610AC99
:1016C000009320994B465A689B682000FEF79CFEC9
:1016D0004B46220023CA23C35B46009323997A68B2
:1016E000BB682000FEF790FE3B00220023CA23C304
:1016F0005B46009326997268B3682000FEF784FE6B
:101700003300220023CA23C3534600932C992D9AF9
:101710002E9B2CA8FEF740FE5B4600932C992D9A39
:101720002E9B2000FEF770FE2CAB220023CA23C3A1
:101730004B469B685A4A944663440F934A469360CB
:10174000BB6863449946BB60B36863441F00B360E1
:10175000A36863441E002E93534600932999434681
:101760005A689B684046FEF717FE5B46009329992E
:1017700043465A689B682000FEF746FE4346220017
:1017800023CA23C32FAB2CAD07CD07C330AB6A46AA
:1017900003CB03C22F9B29986168A268FEF770FEF5
:1017A000002800DB42E72099219A229B14A8FEF72B
:1017B000DDFD2399249A259B16A8FEF7D7FD2699CF
:1017C000279A289B18A8FEF7D1FD149B78331A930B
:1017D000159A78239A1A1B92169A78321C92179AA5
:1017E0009A1A1D92189A78321EA988461E92199A42
:1017F0009B1A4B602B4B1A682C99541A5A682D99D6
:10180000551A33959868861B349633AB6A4603CBDA
:1018100003C2230029982A992B9AFEF731FE8246AB
:1018200064436D4360197643801903F037FD03F07C
:1018300089FD03F04BFD02004001801A80008018F2
:10184000C0000CAA48AB12CB12C20AAA46AB12CBFC
:1018500012C208AA44AB12CB12C207974B4606939A
:101860000F9B05930490534603934A9B02936B4648
:10187000424603CA03C31C9A1D9B1A981B99FEF784
:10188000B1FFD3E64DB03CBC90469946A246AB466C
:10189000F0BDC046FC0B0020781800207C1800200A
:1018A000B80B00004C100020F8B504F053FF07F00F
:1018B0009FFD002007F08CFC002624E0300003F0A0
:1018C000EDFC0022524B03F05AFC524A524B03F0FB
:1018D00074FC04000D0003F061FD00224F4B03F087
:1018E0006CFC03F0F3FCB7004D4BD85120002900ED
:1018F00003F03EFD0022494B03F05FFC03F0E6FCE1
:10190000484BD8510136B4235B009E42D6DB0F20F2
:1019100007F0F4FD112007F0F1FD132007F0EEFDB4
:10192000152007F0EBFD022007F0E8FD122007F07C
:10193000E5FD102007F0E2FD142007F0DFFD002098
:1019400007F07CFC11E0384B1B78022B08D0032BEE
:1019500054D0042B55D0052B56D0FFF72DFA01E0BB
:10196000FFF7E4FA314807F0ADFC0F2007F0E2FC86
:10197000002802D12C4B01221A70112007F0DAFC4A
:10198000002802D1284B02221A70132007F0D2FC43
:10199000002802D1244B03221A70152007F0CAFC3C
:1019A000002802D1204B04221A70022007F0C2FC4A
:1019B000002802D11C4B05221A701D4A13680533FA
:1019C00013601C490A6803320A60B42149008A4244
:1019D00002DB184A00211160B4225200934202DB5C
:1019E000134B00221A600023E12212029342AADA6A
:1019F00059000E4A002088520133F5E7FFF7A2FB99
:101A0000B0E7FFF7A3FCADE7FFF706FEAAE7C04685
:101A10000080664050455254FB2109400088C34075
:101A20008CE001202CE60120F80B00208C1E002009
:101A30007C1800207818002010B58300084A9446CE
:101A400063441C6840226240C0241440802252013A
:101A500013431C60C000034B9C466044416010BDB2
:101A600004C001400040014080000B4B9C46604494
:101A700000290DD00823002A0CD004221343026849
:101A800053400C22134080225201104303607047E0
:101A90000023F0E70022F1E704C0014010B5012364
:101AA0008340D0221206936293610521FFF7C4FFA1
:101AB00010BD0000034B1B6802201840431E9841D4
:101AC000C0B2704700C00640EFF3108072B6034BFF
:101AD0001B68002BFBD0BFF35F8F70472C0100D039
:101AE000BFF35F8F024B00221A6080F310887047AB
:101AF0002C0100D0F8B506000C001500FFF7E4FF3C
:101B0000E308F718F15C07222240012393400B42BF
:101B100005D1DBB20B433B70FFF7E2FFF8BD2100BC
:101B2000280001F0C3FFF0B583B006000191140056
:101B30001F00FFF7C9FFBC420ED8E308F518F35C9D
:101B40000721214001228A401A4201D00134F2E7E4
:101B5000D2B21A432A7001E001246442FFF7C0FFA9
:101B6000002C02DB200003B0F0BD019B002BF9D05C
:101B7000089801F09BFF000000231F2B08D8054A9E
:101B80009A189200BFF35F8F002111600133F4E7D0
:101B90007047C04640000034054A1078431CDBB251
:101BA0001370172B02D9130010221A707047C04609
:101BB000B012002000B583B00100044B00931F2336
:101BC00018220348FFF7AFFF03B000BD789600105E
:101BD00088190020074B9B68103080001950BFF314
:101BE0005F8FBFF35F8F044B0021196082F3108871
:101BF0007047C04600ED00E0240100D010B5091A7E
:101C00000B1F0A4A94466144094A914208D8DA07F0
:101C100006D45B105B055B0D0648184380B210BD0F
:101C2000054B064AA321064801F0A6FEFC0700006A
:101C3000FE0F000000E0FFFF94960010E4980010F3
:101C4000C496001010B5091A04394C08090B08D1C4
:101C50004905490D064A11430180064B2343438041
:101C600010BD054B054AAB21054801F085FEC04675
:101C700000F0FFFF00F8FFFF10970010F098001031
:101C8000C496001001238340034A10681840431E85
:101C90009841C0B27047C04600E100E0002904D07E
:101CA000034B1860034B18607047034B1860FBE749
:101CB00080E200E000E100E080E100E010B50123F7
:101CC00083401800FFF7EAFF10BD000001238340A6
:101CD000014A13607047C04600E200E0024B9B6877
:101CE00010308000C058704700ED00E010B5FFF7DD
:101CF000F5FF002805D0054BC01A2F2803D8012076
:101D000010BD0020FCE70020FAE7C046B412002016
:101D100070B504000D00EFF3108672B60C4B1B6813
:101D2000002BFBD0BFF35F8F2000FFF7D7FF094BDD
:101D3000984201D0A84205D1320029002000FFF7C7
:101D400049FF70BD044B054A8621054801F014FE89
:101D5000240100D0CD01001020970010C898001079
:101D6000C4960010F0B5DE4657464E464546E0B5EF
:101D700089B0814601911500EFF3108A72B6744B59
:101D80001B68002BFBD0BFF35F8F724B0027DF5720
:101D9000002F40DB7C00E419A4006F4824180622C1
:101DA000A2566C4B1A706D4B9A684B4610339B00D1
:101DB000D35898461E001B1A2F2B38D9684B9845CC
:101DC0002FD105AE674B33807B009B46D81980002E
:101DD000614B9846404402306349FFF70FFF708023
:101DE000624BB380FF23B371F571019BB3605F4415
:101DF000BF0047440ECE0EC701231C43A0465246E7
:101E000041464846FFF7E6FE09B03CBC904699467D
:101E1000A246AB46F0BD564B564AD721564801F074
:101E2000ABFD564B534ADE21534801F0A5FDC0439C
:101E300040440C2102F04AFF002912D101239E43A5
:101E4000B34633000026DA79AA4211D90621595641
:101E500000290CDB4A00521892001E003E4B9B18D2
:101E6000F1E7474B434AEA21434801F085FD1E0054
:101E7000002E3AD005AB434A1A80813A5A80062395
:101E8000F3560293002B17DA3F4805AB9B46988028
:101E9000029A9A71DD71019A0792301D2100FFF7B5
:101EA000ADFEB080B7717B00DB199B002A4FFF1895
:101EB0005B4607CB07C7A2E77800C0198000264B16
:101EC000C0180430321DB388D90A1C2907D159051E
:101ED0004915023149005118FFF790FED5E72B4B09
:101EE0002B4AB121244801F047FD05AE1D4B33803C
:101EF0007B000293D8198000174A904602004244A2
:101F00000392901C1849FFF779FE7080039A101D08
:101F10005946FFF773FEB0801E4B5A464146521A8F
:101F2000524153431B0DB371F571019AB260029B8C
:101F30009C466744BF0047440ECE0EC7114B5A461D
:101F40001380813B538001231C43A04657E7C046C2
:101F5000240100D0851E0020B412002000ED00E016
:101F6000CD01001000A1FFFFE412002001BDFFFF22
:101F70005897001018990010C49600108097001010
:101F8000A89700100148000001BD00001C98001037
:101F900008990010AAAA0000F0B5CE46474680B5C1
:101FA00083B006000D00EFF3108872B6564B1B6825
:101FB000002BFBD0BFF35F8F544B9A683400103472
:101FC000A300D758524B9F4207D0AF4200D198E0B0
:101FD0000197504BFB1A2F2B09D94246390030008C
:101FE000FFF7F8FD03B00CBC90469946F0BD3000F9
:101FF000FFF748FE814600213000FFF75FFEBFF388
:102000005F8FEFF30581002901D08C4211D10123AC
:10201000019C9C430022A368AB4212D00622A25628
:10202000002A0DDB53009B189B002200394CE4185A
:10203000F1E73621384B394AFF31394801F09CFC31
:102040002200AB4256D106256557002D38DB6B00C8
:102050005B199A002F4B9B189A68A260DA79E2719B
:1020600006229A56A2719B795BB2002B0FDA2D489B
:10207000A0806B005B199B00264AD3182A4A11786E
:102080009971157049463000FFF718FEA5E7201D2D
:102090006B005B199B001F4A9B181A1D9B88D90A6D
:1020A0001C2907D159054915023149005118FFF77C
:1020B000A5FDDDE71D4B1E4AB121194801F05CFC6E
:1020C000002912D1002A0ED0FF239371194B93805F
:1020D000154A1378A371184B0E49641A644163437F
:1020E0001B0D1370CEE70A4FF2E7201D1349FFF7CF
:1020F000A9FDC7E76A21124B084AFF31084801F0E1
:102100003BFC034F69E7C046240100D000ED00E02E
:10211000CD010010B4120020349800103099001046
:10212000C496001001BD0000851E00201C98001000
:102130000899001001BDFFFFAAAA0000EE120020BE
:1021400068980010F8B5012101432E4BCB1A2F2BB4
:1021500028D8EFF30583002B2BD0EFF3108572B650
:10216000294A1268002AFBD0BFF35F8F274A040078
:10217000244EA41B64416243120D54B2244A926857
:102180009B00D2588A421BD00022032A32D8530027
:102190009B189B001B49CB189B795BB2A3421FD0B5
:1021A0000132F2E7C7211B4B1B4A49001B4801F0D3
:1021B000E3FB92211A4B184AFF31184801F0DCFB6F
:1021C000134A92681749D150174B1A7882711C70C4
:1021D000BFF35F8F0C4B00221A6085F31088F8BDA7
:1021E0000E005300991889007118FF278F710F4A4C
:1021F0008A80E9E7D1210E4B074A4900074801F0E0
:10220000BBFBC046B4120020240100D0AAAA0000E3
:1022100000ED00E07098001044990010C496001082
:1022200098980010CD010010851E002001BDFFFF11
:10223000A49800100022044B02E0044902C30132BA
:10224000072AFAD97047C04600E400E08080808009
:1022500000B583B00100064B00930523002205481A
:10226000FFF761FC002801DB1F23181A03B000BD33
:10227000AC9800108A1E0020024B9C4661448900E5
:10228000016070474000003410B50400FFF784FC83
:1022900001002000FFF7F0FFFF232371BFF35F8FE2
:1022A00010BD10B50400FFF777FC01002000FFF718
:1022B000E3FFFF23237100236371BFF35F8F10BD22
:1022C000034B9C46614489000160BFF35F8F7047F8
:1022D0004000003410B504000120FFF76BFC010042
:1022E0002000FFF7EDFF10BD70B505000C000800E1
:1022F00000F0DAFE0949200000F01AFEFFF74CFC5E
:10230000074B9C466044800068602C75D0231B06F8
:102310001B786B75A400034BE55070BD2D26001093
:1023200040000034381E00200A4B1A68EFF3108179
:1023300072B61368002BFCD0BFF35F8F054B1B6890
:10234000BFF35F8F00221A6081F3108840BF002026
:1023500000217047541E002010B5002922D00368C8
:102360001B7B99421ED8174B9C4661440901836828
:102370009C4661440C684968002A19D003681B7B9D
:102380009A4215D883680F488446624412019A180D
:1023900010685368020001208B4201D80ED0002043
:1023A000C0B210BD084B094A3C21094801F0E4FACB
:1023B000054B064A3C21064801F0DEFAA242EFD85E
:1023C000EDE7C046FFFFFF0F049B0010849D001047
:1023D000BC9A001010B500291ED0037B99421BD86F
:1023E0004B005B18033B0468A4466344002919D0E2
:1023F000002A1DD0914221D0002A25D0047BA24280
:1024000022D8046850008018033820188170197889
:1024100000291FD11A7010BD104B114A68211148B4
:1024200001F0AAFA104B114A6F310E4801F0A4FADC
:102430000F4B0E4A70210B4801F09EFA0D4B0B4AD0
:102440007121084801F098FA044B054A68210548B3
:1024500001F092FA41701A70DDE7C046289B001027
:10246000449D0010449B0010A09B0010509D001044
:10247000AC9B0010B89B001070B506000D00140056
:10248000002914D0002A14D0806873689847002867
:1024900006D0220029003000FFF79CFF280007E04B
:1024A0002A0021003000FFF795FF200000E0100017
:1024B00070BD0800FCE70000F0B583B00500009295
:1024C00001930AAB1C780BAB1F78002C26D0036855
:1024D0005A7B944207D10123002B19D1002C3BD108
:1024E000200003B0F0BD002C0CD01A7B944209D818
:1024F0001A6863001B19033BD3189B78002BEBD0A1
:102500000123E9E73E4B3F4A68213F4801F034FA96
:102510003E4B3F4A67213F4801F02EFA03689C7BFF
:10252000002CDBD012D01A7B94420FD86200121913
:10253000033A19688C46624451789973002900D196
:10254000D9730023937053701370C7E72C4B2D4A37
:1025500068212D4801F010FA002C3AD02B681B7B23
:102560009C4236D82C4BE3181B01AA68944663445E
:10257000009A1A60019A5A60089A9A60099ADA6079
:102580002E68002C2BD030D0337B9C422DD863009A
:102590001B19033B32689446634400229A705A70B8
:1025A0001A70717B22003000FFF766FF707384425F
:1025B00000D095E7287D009A019B00F001FD061EE2
:1025C00001D0002F17D00C9B002B00D188E71E7084
:1025D00086E7124B124A3C210E4801F0CDF9114B0F
:1025E000114AA521084801F0C7F9054B054A6821A1
:1025F000054801F0C1F92868210000F019FFE2E761
:10260000289B0010449D0010449B0010D09B00109C
:10261000BC9D0010BC9A0010FFFFFF0F049B001030
:10262000849D0010B89A0010649D0010F0B5DE463D
:1026300057464E464546E0B58BB0099000230893B7
:102640008200B54BD658370052E0B44BB44A3F2114
:10265000B44801F091F9B44BB44A3C21B44801F0BC
:102660008BF9002901D1002869D10021404600F0F2
:10267000D5FEA04219D12A686B6806920793AB6811
:102680009846EB689A464346002B14D0002C18D08D
:102690003B681B7B9C4214D8631EFA68D35C08938A
:1026A0001B0218433861002015E0A24BA24A8E217C
:1026B0009F4801F061F9A14B9F4A92219C4801F08B
:1026C0005BF9994B9E4A4121994801F055F9002345
:1026D0009A46984600207B68BFF35F8F00221A60FD
:1026E00086F310884346002B32D1002800D10CE13C
:1026F00000F000FC02000B1EA7DB0020002106906A
:1027000007917868EFF3108672B601680029FCD053
:10271000BFF35F8F396888464C7B002CD7D09AD0A6
:10272000097B8C4297D8874965182D01B9688C467A
:10273000654428686968801A9941002991DD2A68F2
:102740006B68099800F03CFC00239A469846C2E763
:10275000089B1B022343994651461800C0470500B9
:102760000E007A68EFF3108B72B6136859424B4132
:10277000D9B2002BF9D1BFF35F8F002E1EDB002EE4
:1027800046DD3B69002B47D04B456DD100F0B2FBD5
:1027900002000B1E6EDB52197341002B70DB002B05
:1027A00072DB0021049101310391029451460191A1
:1027B000414600913800FFF77FFE4CE03B69002B5B
:1027C000DDD04B4514D1069A079B521BB341002B19
:1027D00014DB002B16DB00210491013103910294DC
:1027E00051460191414600913800FFF765FE32E005
:1027F000554B514AA1214E4801F0BEF801225242E8
:10280000524BE6E7454B464A3F21464801F0B4F8B3
:10281000002E01D1002DB4D13B68002C50D05A7B42
:10282000944237D1012100294AD1DA7B002A4DD1C7
:102830009A7B002A03D1DA7B002A5AD19C73DC737D
:10284000002C5CD03B681B7B9C4258D8FA68013C4A
:10285000135D0133135500233B617A68BFF35F8F2B
:1028600013608BF3108843E7374B334AA421304879
:1028700001F082F8294B2A4A3F212A4801F07CF8CE
:1028800001225242314B8AE7244B254A3F212548F9
:1028900001F072F8002C0DD01A7B94420AD8620025
:1028A0001219033A1868844662449278002ABAD012
:1028B0000121B8E7264B274A6821274801F05CF838
:1028C000264B274AF621244801F056F8002A0AD060
:1028D000197B8A4207D851008A18033A19688C4636
:1028E00062445470A4E71A4B1A4A68211A4801F04E
:1028F00043F81C4B1A4AFB21174801F03DF80A4BDC
:102900000F4A41210A4801F037F80BB03CBC904611
:102910009946A246AB46F0BD381E0020C49900106F
:102920002C9D0010E0990010049B0010849D001065
:10293000BC9A0010F89B0010D49D0010109C001051
:10294000909D0010FFFFFF0F1C9C0010FFFFFF7FFA
:10295000289B0010449D0010449B0010589C0010C0
:10296000749D00107C9C001010B50C4B5B68002B14
:1029700004D00A210A48FFF77FFC10BD074C230052
:10298000084A1021206800F059FC032000F0A6FA44
:1029900003212000FFF7A8FCEBE7C046FC12002053
:1029A000541E00205923001010B5064B5B68002B05
:1029B00001D0044810BD044B044A5E21044800F0D5
:1029C000DBFFC046FC120020909C0010A49D00106C
:1029D000BC9A0010F0B5DE4657464E464546E0B577
:1029E0008BB0804616001F00149B9A46159B994693
:1029F00016AB1B789B461F2302AA94466344002211
:102A00001A702CE0002809D042461268127B9042CE
:102A100004D8421E4146C9688A5C42E0404B414AA4
:102A20004121414800F0A8FF0798002B6FD05B467A
:102A3000002B6CD04946D04704000D0003000B4327
:102A400000D16BE0002940DB00F054FA06000F1EB5
:102A50004BDB36196F41002F4DDB002F4FDB434618
:102A60005A68EFF3108472B6136859424B41D9B2D9
:102A70000791002BF8D1BFF35F8F1F3302AA944652
:102A8000634404930023039302934B4601935346FC
:102A9000009332003B004046FFF70EFD031EB1D10C
:102AA000020041464968BFF35F8F00250D6084F343
:102AB0001088002B29D01F2302A98C4663441B7861
:102AC000002BB1D112021043AFE7361BAF41002FEC
:102AD00007DB002FC3DA154B154A3F21154800F0DC
:102AE0004BFF01267642144FF3E7104B104A3F216B
:102AF000104800F041FF012676420F4FADE70B4B27
:102B00000B4A3F210B4800F037FF012040420BB039
:102B10003CBC90469946A246AB46F0BD0798F6E706
:102B2000049B0010909D0010BC9A0010C4990010E6
:102B30002C9D0010E0990010FFFFFF7FF8B5040006
:102B4000002900D162E04268EFF3108572B6136885
:102B500058424341D8B2002BF9D1BFF35F8FCBB2BB
:102B60002268567BB3421BD10120002848D020693F
:102B700088422BD0090AC9B2002B2ED02068007BD6
:102B800083422AD8581EE668305C88422BD0002049
:102B90006368BFF35F8F00221A6085F31088F8BD69
:102BA000002B0DD0167BB3420AD85E00F618033E08
:102BB0001768BC466644B678002ED6D00120D4E70C
:102BC000134B144A6821144800F0D6FE2C21134BF5
:102BD000134AFF31134800F0CFFE134B134A412133
:102BE000104800F0C9FE1900100000F021FC002878
:102BF000CED199210E4B0A4A49000A4800F0BCFE8A
:102C000023698B42C4D100232361C1E70020C6E7BA
:102C1000289B0010449D0010449B0010B49C0010A1
:102C2000F09D0010BC9A0010049B0010909D0010B5
:102C3000D89C0010407D7047F0B587B006000F00AB
:102C4000EFF30583002B1FD106246442E517A41976
:102C50007D418D4202D803D1844201D90024002550
:102C6000002D14DB0494059500F044F902000B1EBE
:102C700013DBA41A9D41002D17DC14D0300039005D
:102C800000F044F907B0F0BD234800F00FFF234BDC
:102C9000234A3F21234800F06FFE204B204A3F216A
:102CA000204800F069FE002CE8D0FFF77DFE0023ED
:102CB000029301931C4B0093049A059BFFF78AFE35
:102CC000002818DADAE7002300E00023002BD5D132
:102CD000164B1A68EFF3108172B61368002BFCD004
:102CE000BFF35F8F114B1B68BFF35F8F00221A6029
:102CF00081F3108820BF0499059A0D4B5B6A9A42B4
:102D0000E3D80B48806A884203D29A42DBD0012381
:102D1000DCE70123DAE7C046DC9C0010C499001010
:102D20002C9D0010E099001029230010541E002053
:102D30000040054070B504000D0000F0DBF8020013
:102D40000B1E0ADB200029008018594100290ADBEC
:102D500000290CDBFFF770FF70BD084B084A3F21CC
:102D6000084800F009FE012040420749F0E7034B04
:102D7000034A3F21034800F0FFFDC046C4990010FC
:102D80002C9D0010E0990010FFFFFF7F10B5FA2284
:102D900092000023002103F0B9FAFFF7CBFF10BD2A
:102DA00070B584B005000C00EFF30583002B12D042
:102DB000244B5B6A994209D8224A926A824208D21D
:102DC000994201D0012002E0002000E0002004B080
:102DD00070BD0120FBE7FFF7E7FD0023029301939D
:102DE000194B00932A002300FFF7F4FD061E11DCA7
:102DF000144B5B6A9C4209D8124A926AAA4207D2D3
:102E00009C4201D00120E2E70020E0E70020DEE75D
:102E10000120DCE720BFFFF7C7FD3100FFF78EFE82
:102E2000084B5B6A9C4209D8064A926AAA4207D2BA
:102E30009C4201D00120CAE70020C8E70020C6E775
:102E40000120C4E7004005402923001070B5EFF3CE
:102E500005801038EFF3108472B61A4B1B68002BF4
:102E6000FBD0BFF35F8F01221300834016494B63F1
:102E700016490B60164909780D00C5402A4214D046
:102E8000114A556A8200134E9259954206D3820028
:102E9000114D525999430E4B197007E00A4A031D10
:102EA0009B0099589950002200E00022BFF35F8FE9
:102EB000044B0021196084F31088002A00D0904749
:102EC00070BDC046280100D0004005403C70054060
:102ED000891E0020601E00206818002010B5010027
:102EE000024A0348FEF706FE10BDC046089E0010C9
:102EF000841E0020044B5B6A034A906A1900536ADF
:102F00009942F9D17047C04600400540074B5B6AC3
:102F10008B4204D2054B5B6AFAE7044B5B6A8B4237
:102F200003D1024B9B6A8342F7D3704700400540B0
:102F300070B504000D00EFF3108672B61B4B1B68D2
:102F4000002BFBD0BFF35F8F002D1CD02000FEF7BD
:102F5000C5FE174B83420BD019002000FEF7D8FEA8
:102F600001212000FEF7AAFE0123A340114A1360AD
:102F7000A400114BE550BFF35F8F0C4B00221A6089
:102F800086F3108870BDA2000B4B0021D1500122A6
:102F9000A2400A490B7893430B7005492000FEF7C5
:102FA000FBFF00212000FEF789FEE4E7280100D0A6
:102FB0004D2E00103860054068180020891E002042
:102FC000F0B5DE4600B584B00400150001921E0085
:102FD0000293FFF78FFF03958E4202D84ED18542B0
:102FE0004CD9EFF3108B72B6274B1B68002BFBD02C
:102FF000BFF35F8F254A17780125A540EBB23B430D
:103000001370234B5D63221D92000199D150A200E1
:103010002049029850501B6A2B4212D11C4B1B6C4A
:103020002B4208D00020BFF35F8F174B00221A609D
:103030008BF3108823E0184B184AC521184800F07C
:103040009BFCFFF757FF8E4214D802D1039B8342AB
:1030500010D80E4B1B78BB420ED00D4B1D625D632A
:103060001F2004400123A3400E4A1360074B1F702A
:103070001E38D8E70020D6E70120D4E7012004B0AD
:1030800004BC9346F0BDC046280100D0891E002034
:1030900000400540601E00202C9E0010A09E0010E5
:1030A000509E001080E200E010B5EFF3108472B67D
:1030B0000A4B1B68002BFBD0BFF35F8F01238340BB
:1030C000074A136207490A789A430A70BFF35F8F71
:1030D000024B00221A6084F3108810BD280100D032
:1030E00000400540891E002010B500291ED0037B3A
:1030F00099421BD84B005B18033B0468A446634409
:10310000002919D0002A1DD0914221D0002A25D0B3
:10311000047BA24222D8046850008018033820188B
:103120008170197800291FD11A7010BD104B114AF7
:103130006821114800F020FC104B114A6F310E48F5
:1031400000F01AFC0F4B0E4A70210B4800F014FCE3
:103150000D4B0B4A7121084800F00EFC044B054A48
:103160006821054800F008FC41701A70DDE7C04690
:10317000289B0010789F0010449B0010A09B00101B
:10318000849F0010AC9B0010B89B001070B5060027
:103190000D001400002914D0002A14D08068736830
:1031A0009847002806D0220029003000FFF79CFF36
:1031B000280007E02A0021003000FFF795FF2000DB
:1031C00000E0100070BD0800FCE7000010B500230F
:1031D000437301338373037BC3730123027B9A42DE
:1031E00014D9002B0CD0027B934209D85A00D21874
:1031F000033A01688C4662440133DBB25370EDE759
:103200000B4B0C4A68210C4800F0B6FB002A09D091
:10321000924207D8016853009A18033A8A1800238B
:10322000537010BD024B034A6821034800F0A4FB11
:10323000289B0010789F0010449B001010B501736C
:1032400042608360FFF7C2FF10BD000070B504004C
:10325000081E00D170BD002934D0237B994231D89B
:103260004B005B18033B2268944663445A78002A5B
:10327000F0D02DD0237B9A422AD853009B18033BD1
:1032800021688C4663445D7800215970002825D060
:10329000237B984222D843001B18033B21688C46AD
:1032A00063440021597001002000FFF76FFF060002
:1032B00029002000FFF7CAFF020031002000FFF7BD
:1032C00065FFC7E7084B094A6821094800F054FB2D
:1032D000054B064A6821064800F04EFB024B034AA4
:1032E0006821034800F048FB289B0010789F0010DD
:1032F000449B001070B505000C00160000292FD06B
:1033000034D0037B994231D84B005B18033B0268F1
:10331000944663445A78002A2ED19A78002A31D1F3
:103320001978FFF793FF0300002E0AD0EA7B002AEA
:103330002ED1AA7B002A03D1EA7B002A3BD1AC73B1
:10334000EC73002B3DD1002C4FD02B7B9C424CD8F2
:103350002B6861000C19033C1C190023637070BDBD
:10336000254B264A3821264800F006FB254B264AE5
:103370006821264800F000FB254B204A3A212048CE
:1033800000F0FAFA234B1D4A3B211D4800F0F4FAE5
:10339000002A0AD0297B8A4207D851008A18033AAA
:1033A00029688C4662445470C3E7164B164A68215C
:1033B000164800F0E1FA184B104A4221104800F07C
:1033C000DBFA002B0BD02A7B934208D843001B1852
:1033D000033B2A689446634400229A70B3E7094B82
:1033E000094A6821094800F0C7FA064B064A6821D5
:1033F000064800F0C1FAC046BC9E0010989F00101D
:10340000C49E0010289B0010789F0010449B001061
:103410000C9F0010349F00107C9C001070B50400BD
:103420000A00457B2900FFF765FF6073280070BD27
:1034300070B50400002966D0437B8B420ED0002972
:1034400011D0037B99420ED84B005B18033B0268F6
:10345000D0188378002B0CD1002055E00121FFF714
:10346000DDFF012050E0294B294A6821294800F05E
:1034700083FA002B1FD0227B93421CD825685A0068
:10348000D318033BEA18EB5C8B421AD0002B1BD0FD
:10349000227B934218D85A00D318033B2268D218D3
:1034A00053788B4216D0002BF0D11B4B1B4A6B215B
:1034B0001B4800F061FA154B154A6821154800F0C9
:1034C0005BFA4378137007E0104B114A68211148EA
:1034D00000F052FA43785370002383704370012246
:1034E0002000FFF707FF0200617B814205D020002A
:1034F000FFF74CFE6073012006E00A4B074A71217A
:10350000074800F039FA002070BDC046289B001023
:10351000789F0010449B0010A4980010AC9F0010EE
:10352000C49E0010589F0010F8B5DE4657464E4620
:103530004546E0B505000F0092461E000A9B9E42DC
:1035400050D3330E994636020A9A0023300049467A
:1035500001F0FAFB80466C006419A4002F4B9C46D6
:1035600064446368834200D260602B1FDBB29B46D9
:10357000012B3DD9C0239B012343802212011A60F5
:10358000AB00274A9958002907D0506901F09EFBEB
:10359000431C5800C0180338FDD253465A01236813
:1035A0005A40E0231A4080235B0123431A605A46A5
:1035B000012A28D980239B012343802212011A600B
:1035C00043466360424600233000494601F0BCFB9D
:1035D000AD00134B585101203CBC90469946A24681
:1035E000AB46F8BD0F4B104A3321104800F0C4F928
:1035F000012FBFD1C0239B01234303221A60A3687C
:10360000DB07FCD5C9E72168794003220A401A602C
:10361000A3680122BA401A42FAD0CBE700800040EA
:103620008C190020C49F00102CA00010D89F0010FF
:1036300030B583B00C2000F013F9FEF73BFA0028F8
:103640000DD00023092B05D899002D4A2D4888500C
:103650000133F7E72A4B2C4A5A6203B030BD2B4B9B
:1036600000229A6700F06EF9294B01221A60274B5D
:103670005B6C012BFBD1274B03221A60234B9B6B06
:10368000012BFBD1013300930433234A012123484A
:1036900000F054F805230093214A0121214800F04D
:1036A0004DF8214B0093002202210420FFF73CFF3C
:1036B0001E4D00952B00002201210520FFF734FF4D
:1036C000104C00942300002200210720FFF72CFF5C
:1036D00000942300002200210820FFF725FF0A4B59
:1036E00000932300002200210920FFF71DFF009511
:1036F0002B00002200210620FFF716FFADE7C04691
:103700008C190020006CDC021BB700000080004018
:103710003CB0004030B00040002F685900800240AB
:10372000008C864700C00240001BB7004059730759
:103730008000014BC05870478C190020F0B5C64678
:1037400000B504000E0090461D00384801F0BEFA96
:103750000700374A4244374B9A423AD80100404664
:1037600001F0B4FA0200103A98235B009A4236D86E
:103770006B1E062B39D8069B013B062B35D84346DA
:103780001A09BA4237D32D04069B1F032F4323681F
:10379000002B36DB284B9C4244D080256D01274B03
:1037A0001D60274B1D60274A92682B009343FAD176
:1037B0002660A060221DC0239B01134321221A60B2
:1037C0002268002AFCDAE76008221A6004BC9046EE
:1037D000F0BD1D4B1D4A11211D4800F0CDF81D4BB9
:1037E0001A4A19211A4800F0C7F81B4B174A1C2126
:1037F000174800F0C1F8194B144A2321144800F06F
:10380000BBF822683F231340B342C3D1A3681B0512
:103810001B0D8342BED1E368EE22D2021340BB42AD
:10382000B8D1D3E78025AD01B9E7C046001BB7008A
:1038300080E84BD380F8A93200C0024000E000408D
:1038400000F0004000C000403CA000106CA100103F
:103850009CA00010E8A0001004A1001050A10010CE
:1038600080239B000343014AD362704700800540D8
:10387000024B1A68024B5A607047C046281E00204F
:103880000080054010B50200164B8020C00518606E
:10389000154B1648186000290AD0154BE021C904C1
:1038A0001960002A09D1124B802212061A6010BD3D
:1038B0000C4BE021C9041960F3E75001801A800025
:1038C000801800010B4B186080235B04984202D3E0
:1038D000084B094A1A60FFF7CBFF054B8022D2053F
:1038E0001A60E4E700B0054008200140FCFF010039
:1038F00000A00540281E0020FFFFFF0010B50300B8
:1039000010000C4A8024E4051460002B0DD0012225
:103910001343094A094CD461094C5C40146251625A
:1039200093620021FFF7AEFF10BD034B0022DA6166
:10393000F7E7C04600B0054000800540D3C007B09F
:103940002D3FF84F064BAA2212011A602F22DA608F
:10395000044B054A1A60024B5B68002BFBDA704788
:10396000004002400060024000B0FA0000BEFDE7E7
:1039700010B5FFF7FBFF000010B582B00C00190076
:10398000002A0CD0084B002A0BD001920093230090
:103990000200064802F0D2FE0120FFF7E7FF044BC9
:1039A000F1E7034AF1E7C04678A1001088A10010B2
:1039B00050AD001070B52B4B2B4A1A602B4B2C4A84
:1039C0001A602C4B9A682A4B9343FAD12A4C2B4B02
:1039D0009C4202D208CC9847F9E7FFF729FE234B17
:1039E000274A1A60234B9B68DB43DB01FAD1254B46
:1039F00040229A675A671A67DA66234C09E0234B1C
:103A0000234A87212348FFF7B7FF2000FEF73CFC3D
:103A10000834214B9C4209D22368002BF5D0012B9E
:103A2000EDD12000FEF73DFC0834F2E71B4CA16805
:103A30001B4DC022280002F029FDA560EFF305838D
:103A4000002B00D000BEFEF797F8FEF7F3FBFEF761
:103A50008BFF144C144B9C4202D208CC9847F9E7D8
:103A600070BDC04600E00040BFCDFBFE00F000404E
:103A7000FE7F3C0000C00040A8130020B8130020C7
:103A8000FFFFFF0100F00140A0130020B8A10010CB
:103A90003CA20010D8A10010A813002000ED00E007
:103AA00000000020B8130020C01300200FB400B5A0
:103AB00083B0084802F012FE049B002B07D005A932
:103AC0000191180002F01AFE034802F007FE0120DF
:103AD000FFF74CFF28A2001038A20010704710B565
:103AE000002802D00B684968984710BD01000020EB
:103AF0000A681378303BDBB2092B08D883001B1807
:103B00005B00501C08601078C0183038F0E7704730
:103B1000F0B5DE4657464E464546E0B583B093467F
:103B20001F000C9B9A460D9C0E9B99460F9B9B0772
:103B300003D0B8460F00060022E00192A346884653
:103B40004E46B9460700B44207D2551C4B46414683
:103B50002020B84701342A00F5E73D004F465C4677
:103B6000019B9B46B1464646B84637002E0007E00B
:103B7000013C551C5346185D43463900B0472A00A6
:103B8000002CF5D135003E0047460F9B9B0707D41C
:103B9000100003B03CBC90469946A246AB46F0BD2F
:103BA000B0464E46B9462F005D46531BB342EFD296
:103BB000541C4B4641462020B8472200F5E7F0B59B
:103BC000CE46474680B585B0944698460C9D0D9CE0
:103BD0000EAB1B789946109A119B129EB7071BD407
:103BE000002B08D0F70706D54F46002F02D10C371F
:103BF000374200D0013B944208D21F2C06D8302710
:103C00002F550134F7E730272F550134F70703D537
:103C10009C4201D21F2CF6D9F70615D5770505D49D
:103C2000002C03D0944224D09C4222D00F9A102A18
:103C30002BD00F9A102A30D00F9A022A35D01F2C81
:103C400002D830222A5501341F2C05D84A46002AB2
:103C500031D02D222A550134039602930194009508
:103C600043466246FFF754FF05B00CBC90469946A8
:103C7000F0BD621E012C06D00F9F102F01D0140042
:103C8000D4E7023CD2E71400D0E7B206D1D41F2C0F
:103C9000CFD878222A550134D1E7B206CCD51F2CD3
:103CA000CAD858222A550134C9E71F2CC7D8603218
:103CB0002A550134C3E7720703D52B222A55013454
:103CC000CAE73207C8D520222A550134C4E7F0B527
:103CD000DE4657464E464546E0B593B081468A4695
:103CE000089209931CAB10CB1B789B461E9D219B11
:103CF0009846002C03D1102342469A4390468023D5
:103D0000DB0046461E4042461A4212D0002C22D00A
:103D100000260EE03033D9B2771C0AAB9955290042
:103D2000200000F0D3FFAC4216D31F2F14D83E0062
:103D300004002900200000F0C9FFCBB2092BE9D90B
:103D40004246920605D54121C918C9B20A39C9B2FD
:103D5000E2E76121F8E7270043460693209B05939D
:103D60001F9B049303955B46029301970AAB009354
:103D7000099B089A51464846FFF721FF13B03CBC07
:103D800090469946A246AB46F0BDF0B5DE46574692
:103D90004E464546E0B595B0089009910A920B93BE
:103DA0001E9E1F9C20AB1B789B46229B9946239D01
:103DB000269B9A463300234303D1103352469A433D
:103DC00092468023DB0057461F4052461A4219D0C4
:103DD000330023432DD0002714E03033DAB27B1CAC
:103DE00098460CABDA554A462B003000210000F013
:103DF000ABFFA5421FD819D043461F2B1BD84746FF
:103E000006000C004A462B003000210000F09CFF09
:103E1000D3B2092BE1D95246920605D54122D218D8
:103E2000D2B20A3AD2B2DAE76122F8E7B145E3D971
:103E300001E00023984653460693259B0593249B57
:103E400004934B4603935B460293434601930CABAA
:103E500000930B9B0A9A09990898FFF7B0FE15B0DA
:103E60003CBC90469946A246AB46F0BDF0B5DE4656
:103E700057464E464546E0B591B083468A460C9279
:103E800098461A9C08941B9D099522002B0020003F
:103E9000290001F0F0F9002800D0E5E001225242AB
:103EA000D34B2000290001F0E1F9002800D0DBE02D
:103EB00001225242CF4B2000290001F0C1F9002815
:103EC00000D0D1E000220023089D2800099E310087
:103ED00001F0B6F9002800D0DDE0089809990690B5
:103EE00007918023DB001E9A1A400D921E9A1A42F7
:103EF00001D106231C930698079904000D000A00BF
:103F00000600024300D1CDE0080D4005400DBA4C3B
:103F1000A44660440A03120BB84B13431F0001F080
:103F2000BDF9B74AB74B01F048F9B74AB74B01F0B2
:103F30001DF904000D000022B54B3000390001F0DE
:103F40000CF9B44AB44B01F038F902000B00200020
:103F5000290001F00BF901F0B9F9814601F09EF951
:103F600004000D00AD4AAE4B01F027F90022AD4B25
:103F700001F0FCF801F0AAF90600AB4AAB4B2000B7
:103F8000290001F01AF904000D00300001F086F953
:103F9000A74AA84B01F011F902000B0020002900EC
:103FA00001F0DBF804000D0002000B0001F005F940
:103FB0000A900B91A04BF31800261F0522002B003E
:103FC0002000290001F0D2F80E900F9122002B0062
:103FD00000208021C90501F0C0F804000D00002276
:103FE000964B0A980B9901F0CAF80022944B01F005
:103FF000BDF802000B000A980B9901F0C0F80022EE
:10400000904B01F0B3F802000B000A980B9901F0F5
:10401000B6F802000B002000290001F0A7F802000A
:104020000B000E980F9901F0AAF80022734B01F0D3
:104030009DF832003B0001F0C0F806000F000400BC
:104040000D00069A079B01F011F900282CD00123DE
:104050005B429C46E1440022794B3000390001F07C
:104060008EF804000D001FE01E9B04931D9B03931C
:104070001C9B0293089A099B0092019343460C9A59
:104080005146584600F0F8F811B03CBC90469946AD
:10409000A246AB46F0BD069580231B069C466644AF
:1040A00007961EE7002399464B466333C62B1FD85D
:1040B00004261E9B1B0527D52B00234310D0624AE4
:1040C000624B0698079901F0C9F8002800D183E0F7
:1040D00000225F4B0698079901F0B2F800287BD0C8
:1040E0001C9B4B4506DD4A46981A431E1C9303E071
:1040F0000526DEE700231C938023DB001E9A1A436B
:104100001E920026002399461D9B9E426ED29F1B45
:1041100002231E9A1A400A921E9A134202D0002EBF
:1041200000D000274B46002B07D022002B0006981A
:10413000079901F024F806900791002200230898BF
:10414000099901F07DF8002800D085E0414B1E9AC6
:104150001340049303971C9B0293069B079C0093B8
:10416000019443460C9A5146584600F085F8002EBB
:1041700000D189E71E9B9B067AD54525441C434602
:10418000020051462800D8474B46DA179B18534087
:1041900005220592013E0496002203920A32029201
:1041A0004A46D00F0190009343462200514658469C
:1041B000FFF78DFD0A9B002B00D165E702005F46EB
:1041C0000C9E1D9D931BAB4254D2541C434651463A
:1041D0002020B8472200F5E71C9B002B94D00D9BB4
:1041E000002B91D01C9B013B1C938DE700278FE790
:1041F000FFFFEF7FFFFFEFFF01FCFFFF0000F03F3D
:10420000FB799F501344D33FB3C8608B288AC63FC5
:104210000000F83F61436F63A787D23F71A379091C
:104220004F930A400000E03F1655B5BBB16B02400A
:10423000EF39FAFE422EE63FFF03000000002C405B
:1042400000002440000018402D431CEBE2361A3FCA
:1042500080842E41FFF7FFFF069C079D2200290066
:1042600080200006844661440B00069207936DE7A8
:10427000652583E7100007E7F0B5DE4657464E4652
:104280004546E0B595B00690079193469946209F24
:104290001E9A1F9B1000190000F0EDFF002831D17D
:1042A00001225242BF4B1E981F9900F0C9FF0028FF
:1042B00037D101225242BC4B1E981F9900F0D6FF05
:1042C00000283DD10022B94B1E981F9900F0CEFF67
:1042D000002850D10022B64B1E981F9900F0B0FF65
:1042E000002848D1002200231E981F9900F0A8FF43
:1042F000002850D100239846229B5B0500D4B6E0ED
:10430000002458E0229B0393219B029303230193F3
:10431000A84B00934B465A4607990698FFF7F8FBBF
:104320000EE1229B0393219B029304230193A24B52
:1043300000934B465A4607990698FFF7E9FBFFE0C2
:104340000423229A1A4022990B4210D09B4B002A38
:104350000FD0042222990391219902910192009396
:104360004B465A4607990698FFF7D2FBE8E0944B74
:10437000EDE70322EEE7229B0493219B0393029730
:104380001E9B1F9C009301944B465A460799069822
:10439000FFF76CFDD4E01E9A1F9B0020002100F067
:1043A000DCFE1E901F9101239846A5E70CAB30223E
:1043B0001A55013F01341F2C01D8092FF6D81E9839
:1043C0001F9900F083FF050000F068FF02000B005A
:1043D0001E981F9900F0C1FEFA007A4B9B181A68CC
:1043E0005B680A920B9300F0E8FE0890099100F0D8
:1043F00091FF060000F04EFF02000B00089809999B
:1044000000F0ABFE0890099100226F4B00F02EFFE8
:1044100000282ED00136300000F03CFF02000B00D7
:104420000A980B9900F012FF002801D001350026F0
:10443000002F2CD1280000F031FF02000B001E9845
:104440001F9900F08AFE06000F0000225E4B00F06C
:10445000F7FE002842D100225B4B3000390000F00B
:1044600005FF00283AD1EB0738D5013536E006279D
:1044700046E70022544B0898099900F0E1FE002815
:10448000D6D1002E01D0F307D2D50136D0E7AA4607
:104490001F2C11D8013F0A21300000F017FC651CC9
:1044A00030310CAB19550A21300000F00FFC092EF9
:1044B00026D906002C00EBE7554604E00CAA302173
:1044C00011551F0001341F2C02D87B1E002FF5D17F
:1044D0001F2C03D80CAB2E221A5501341F2C14D8D4
:1044E0000A21280000F0CAFB661C30310CAB1955BC
:1044F0000A21280000F0C2FB051E05D03400EDE7BC
:104500002B0055461C00DEE734000323229A13409B
:10451000012B1CD01F2C06D84346002B32D00CABED
:104520002D221A550134229B0393219B029301945F
:104530000CAB00934B465A4607990698FFF7E8FAEA
:1045400015B03CBC90469946A246AB46F0BD219BB7
:10455000002B13D04346002B02D10C3313420FD053
:10456000219B013B2193190003E00CAB30221A552B
:1045700001348C42CED21F2CF7D9CBE72199F8E732
:104580002199F6E7229B5B0704D50CAB2B221A5529
:104590000134C8E7229B1B07C5D50CAB20221A5556
:1045A0000134C0E7FFFFEFFFFFFFEF7F65CDCD4197
:1045B00065CDCDC158A200105CA2001050A2001021
:1045C0004CA2001048A400100000E03FF0B5DE4609
:1045D00057464E464546E0B593B082468B469046D8
:1045E0001193002900D1ECE200275546119B187861
:1045F000002800D1E8E2252809D07C1C43463A0077
:104600005946A847119B013311932700EEE7013368
:10461000119300241DE00B00303BDBB2092B37D98E
:104620002A293AD000230A93119B1A782E2A44D0C3
:1046300000239A46119A1378683BD9B2122900D9FF
:1046400080E08B00CB49CB589F4601231C430132AD
:104650001192119A11780B00203BD8B21028DAD8A9
:104660008300C548C3589F4602231C430132119260
:10467000EFE704231C4301321192EAE708231C43AD
:1046800001321192E5E710231C4301321192E0E759
:1046900011A8FFF72BFA0A90C6E71C9B1A1D1C9263
:1046A0001868002804DB0A90119B01331193BBE7C3
:1046B00002231C4343420A93F6E78022D2001443AC
:1046C0005A1C11925A781300303BDBB2092B04D9E3
:1046D0002A2A07D000239A46ACE711A8FFF706FA6A
:1046E0008246A7E71C9B1A1D1C921868002804DB51
:1046F0008246119B013311939CE70020F8E7802349
:104700005B002343511C119152786C2A01D01C008C
:1047100018E0C0239B001C430131119112E080235B
:104720002343511C11915278682A01D01C0009E0E2
:10473000C0231C430131119104E080235B001C4322
:1047400001321192119B18780300253BDAB2532AEB
:1047500000D92CE29300894AD3589F4680239B00BE
:104760001C4301321192EDE780235B001C430132B0
:104770001192E7E7782809D0582838D06F2838D028
:10478000622838D010239C430A2600E010265828BF
:1047900033D0692803D0642801D00C2294436305E8
:1047A00001D50122944369282AD0642828D0A30582
:1047B00000D59FE0E30500D5B8E0630600D4CAE069
:1047C0001C9A111D1C911168FF220A4005940A9B36
:1047D00004935346039302960023019300924346A9
:1047E0003A0059462800FFF772FA070027E0102622
:1047F000CDE70826CBE70226C9E720221443C8E705
:10480000A30520D4E30550D4630666D51C9A111D78
:104810001C911168FF220A40D317D1185940059402
:104820000A9B0493534603930296D20F0192009180
:1048300043463A0059462800FFF749FA0700119B02
:1048400001331193D2E61C9BDA1D07218A43110024
:1048500008311C91116853689C46DB170C930D932B
:104860000C9A0D9B100048400E90624653400F93E7
:104870000E980F990C9A0D9B801A99410E900F91EA
:1048800008940A9B079353460693049600230593C6
:104890006346DA0F02920090019143463A0059466E
:1048A0002800FFF772FA0700C9E71C9A111D1C9136
:1048B0001268D317D118594005940A9B04935346A4
:1048C00003930296D20F0192009143463A00594653
:1048D0002800FFF7FCF90700B1E7230605D51C9A6D
:1048E000111D1C910023D25E96E71C9A111D1C918C
:1048F000126891E71C9BDA1D07218A4311000831D9
:104900001C9108940A9B0793534606930496002330
:1049100005930293136854680093019443463A0048
:1049200059462800FFF731FA070088E71C9A111D45
:104930001C9105940A9B049353460393029600230B
:1049400001931368009343463A0059462800FFF745
:10495000BEF9070073E7230606D51C9A111D1C91AA
:1049600012681204120C31E71C9A111D1C91126876
:104970002CE7C04664A20010B0A20010F4A2001000
:1049800046281AD01C9B0733072293431A0008328B
:104990001C9204940A9A0392524602925C681B6825
:1049A0000093019443463A0059462800FFF764FCFF
:1049B0000700119B0133119318E620231C43E1E704
:1049C000672801D0472802D180231B011C434528BA
:1049D00001D0472801D120231C431C9B0733072209
:1049E00093431A0008321C9204940A9A0392524686
:1049F00002925C681B680093019443463A00594652
:104A00002800FFF733FA0700119B01331193EDE5FE
:104A100002231A002240924623421FD001241C9BED
:104A20001A1D1C927A1C9146187843463A00594642
:104A3000A8475346002B16D1119B013311934F46C3
:104A4000D4E5561C434659462020B847230032007F
:104A50005C1C9D42F5D83D001700E0E701233A00B9
:104A60002F000A9DF4E74A46A9460A9D06E0571C16
:104A7000434659462020C84734003A00661CA542E8
:104A8000F5D84D469146D7E71C9B1A1D1C921B6812
:104A900099465346002B00D1013B4E4601E00136BA
:104AA00013003278002A02D05A1E002BF7D14B4651
:104AB000F21A10928023DB0026001E401C4203D015
:104AC000524501D95346109302231A0022400B92FB
:104AD000234205D03A0037004C46A946554620E00F
:104AE0003A00109B5F46B3462E0006E0551C434635
:104AF00039002020B04723002A005C1C0A99994203
:104B0000F4D835005E46BB46109437004C46A946A3
:104B1000554606E01D000134561C43465946C84719
:104B200032002078002804D0002FF4D06B1E002D16
:104B3000F0D117004D460B9B002B03D1119B013385
:104B4000119353E50A9F109B06E0561C43465946B5
:104B50002020A847230032005C1C9F42F5D8170094
:104B6000ECE721231C431C9B1A1D1C921B6800931D
:104B700005940823049353460393102302930023C0
:104B8000019343463A0059462800FFF7A0F8070072
:104B9000119B0133119329E57C1C43463A00594689
:104BA0002520A847119B0133119327001EE57C1C8B
:104BB00043463A005946A847119B013311932700F9
:104BC00014E50B4B9A460FE5AA4647450DD34346DD
:104BD0005A1E434659460020D047380013B03CBC0B
:104BE00090469946A246AB46F0BD3A00F1E7C04672
:104BF000DD3A001000B585B00290039101210093C9
:104C000013004A4202A90248FFF7E0FC05B000BDCC
:104C1000DF3A001001480421014B184730130020EF
:104C2000454C001010B5010018231B881422108871
:104C3000984710BD10B5010018231B881622108854
:104C4000984710BDF0B5C64600B507000E00002518
:104C50000123984600E00135B5420AD2AC003C1968
:104C60002068FFF7DFFF20600028F4D1002398467A
:104C7000F1E7404604BC9046F0BD0000124A936F35
:104C80009B0815D29066D166002905D0FFE7FFE7A3
:104C9000FFE7516F106F704704B580210906C217F6
:104CA0005140002800D0C84304F086FC002104BD18
:104CB000F0B5146E556E576F166FFFF7E3FF14666D
:104CC000556657671667F0BD000000D0114A936F14
:104CD0009B0813D210665166002905D0FFE7FFE755
:104CE000FFE7516F106F704704B5002801D0002016
:104CF000C04304F061FC002104BDC046F0B5146E51
:104D0000556E576F166FFFF7E5FF146655665767C8
:104D10001667F0BD000000D094464A4A926F920890
:104D2000624601D228E0C046F0B5464E346E756E3C
:104D3000776F366F00F020F89446424A1466556645
:104D4000576716676246F0BD94463E4A926F9208D6
:104D5000624601D254E0C046F0B53A4E346E756EEC
:104D6000776F366F00F04CF89446364A14665566F5
:104D7000576716676246F0BD002B24DB11D000296F
:104D80003EDA00B5C943404200D1013100F038F8A5
:104D9000C943404200D10131DB43524200D10133CB
:104DA00000BD002AEBD1002801D1002905D0002048
:104DB000C90FC90701D1C043410800B504F0F4FB95
:104DC0000022002300BD00B500290ADBDB4352426C
:104DD00000D1013300F014F8C943404200D1013141
:104DE00000BDC943404200D10131DB43524200D1F2
:104DF000013300F005F8DB43524200D1013300BD1E
:104E0000002923D1002B18D1002A0CD0BC460D4F0D
:104E100038667A6600210023FFE7FFE7FFE77A6F35
:104E2000386F67467047002801D00748010000B579
:104E300004F0BAFB0022002300BD02000B0000209A
:104E400000217047000000D0FFFFFFFF002B00D0C3
:104E5000BFE0130C28D1002AE7D080B4114F396687
:104E60007A66FFE7FFE730B4040C7B6F396F1B04F1
:104E700023433B667A66FFE7FFE7FFE7C04684B25D
:104E80007B6F3D6F1B0423433B667A66FFE7FFE7BA
:104E9000C04600232C042D0C7A6F386F001969412D
:104EA000B0BC7047000000D0F0B594460025140E49
:104EB00001D112020835140F01D112010435940FEB
:104EC00001D192000235D40F01D152000135D40B2B
:104ED0000134254F7C66254C3C660E0C93B2FFE7EF
:104EE000FFE7FFE73C6F6643360C7703BE4673432C
:104EF000DF0B5B04C01AB941130C7343DB18C91AEA
:104F0000CE086643360CB64493B273431F0F1B01A1
:104F1000C01AB941130C73431F0B1B05C01AB941CA
:104F2000860D8F023E436643360C092D24DB520A60
:104F30007243801A7703460A6643360C16235B1BBE
:104F4000DE40DF40BF1964466643821B704604356D
:104F500006330100D940A840C01900D30131A24254
:104F600006D20023F0BD0000000000D0FFFFFFFFCD
:104F7000121B0130F3D3F1E709277F1BFE40644683
:104F8000A2B27243801A00D20139220C7243130C70
:104F90001204821A99410B00704604351337010040
:104FA000F940A840801900D30131002B02D1A24260
:104FB0000AD2F0BD013000D30131121BFAD2013BFD
:104FC000F8D1A24200D2F0BD013000D30131121B52
:104FD000F7E7F0B51C0C00D080E00CB400251C0AEB
:104FE00004D11B02160E3343120208351C0B04D1E8
:104FF0001B01160F3343120104359C0B04D19B0097
:10500000960F334392000235DC0B02D192185B41BC
:1050100001351C00971864410134464F7C66464CAC
:105020003C660E0CFFE7FFE7FFE7C0463C6F6643B8
:10503000360C7703BE4697B27743C01B00D20139C6
:10504000C01B00D201399FB27743C91BC91B170C83
:1050500077437E04FF0B801BB941CE086643360CB4
:105060000C2D33DBB644120B1F053A431B0B97B2D2
:105070007743C01B00D201399FB27743C91B170C7D
:1050800077433E043F0C801BB941860D8F023E439F
:10509000664329277F1BFE400C3D7746AF40BF1972
:1050A00030BCA2B2ABB272437343801A9941220C56
:1050B0007243130C1204801A994102000B0001374D
:1050C000001BA941F9D2781E0021F0BD0C277F1BDF
:1050D000FE4077467F0BAF40FF19E0E700245D1CE0
:1050E00007D0144F7D663966FFE7FFE7FFE7FFE76C
:1050F0003C6F95B29EB265436643401BB141150CAF
:105100001E0C6543664336042F0C3E432D04401BA2
:10511000B141994204D202000B0020000021F0BDF1
:1051200001D19042F7D3801A994101349942F2D3C8
:10513000F6E70000000000D0FFFFFFFF44464D46A9
:1051400056465F46F0B47047F0BCA046A946B2464A
:10515000BB46704748404140484018B41B4B5B6811
:10516000FC46019308BD04DF7757001018B4174BB5
:105170001B68FC46019308BD00DF81570010944670
:10518000134A926F920809D2624618B40F4BDB683B
:10519000FC46019308BD0CDF395A00100C4AF0B5EB
:1051A000146E556E576F166F6246FFF7EEFF084A92
:1051B0001466556657671667F0BD18B4034B9B68B5
:1051C000FC46019308BD08DFDD580010CCEB012040
:1051D000000000D0FFB550404240504059404B4085
:1051E000594000E0FFB5154F4C00640D03D0BC42A0
:1051F00004D10C0314D80020090D09055C00640DCE
:1052000003D0BC4204D11C030AD800221B0D1B058D
:1052100001264B4009D44B4003D58B4200D182423A
:10522000FFBD9942FCD19042FFBD0B43DB18034305
:105230001343F5D0C9434918FFBD0000FF07000024
:1052400000B5FFF7CFFF804100BDC04600B5FFF7B6
:10525000C9FF01D9002000BD012000BD00B5FFF746
:10526000B9FF01D9002000BD012000BD00B5FFF746
:10527000B1FF804100BD012040054A00121804D84A
:105280005A00121801D800207047012070470020F2
:10529000704700000021002805D17047C117484021
:1052A000401AFAD0C90713B5064B1B6898470CBCC7
:1052B000441CA2401005120B0349091B09051943A0
:1052C000114310BD501E00201F04000010B54C00FB
:1052D000620D8023D218DB00D21A5B057E2A10DD16
:1052E0009E3A13DACC170903490819435242D140B8
:1052F000640001341532202A05DAD04008436043A7
:1053000010BD002010BD0846604310BDC80FC01876
:10531000013810BD18B4044B5B6AFC46019308BD0C
:1053200024DF155E00100000CCEB012018B4044B04
:105330001B6EFC46019308BD60DFC75E00100000D5
:10534000CCEB012018B4044B9B69FC46019308BDCB
:1053500018DF055C00100000CCEB0120024A034B73
:1053600000B500F0E3F900BD182D4454FB211940AD
:105370008A0002D3920D092A08DA18B4064BDB6BB7
:10538000FC46019308BD3CDFFB5F001000B5FFF752
:10539000E5FF04BC9646F0E7CCEB01208A0002D37F
:1053A000920D092A08DA18B4064B1B6CFC460193CF
:1053B00008BD40DF0B60001000B5FFF7CFFF04BC55
:1053C0009646F0E7CCEB012070B513231C78012C36
:1053D0000CD0012C13DC022C02DC1F4A1F4B9A64F8
:1053E0001F48FFF71FFC1F4B186070BD00231F2BC9
:1053F000EFD899001848194A88500133F7E71A483E
:10540000FFF718FC05001948FFF714FC0238037871
:105410009B007F2B19DD80222900104801F036F80F
:10542000022CD8D1124B1A88B5231B029A4209D1FB
:10543000104B1A88104B9A4204D1104B1A88104B0B
:105440009A42C8D00020FEF731FB0E4B0E4A3221A3
:105450000E48FEF791FAC0463D570010CCEB0120F4
:105460004C330000501E00205344000053460000FF
:1054700054380000D8380000494600009C3800002D
:105480005946000098A4001044A50010ECA4001098
:10549000F0B5DE4657464E464546E0B585B00400B9
:1054A0000D00009201930E9B9A46002B09DD019B93
:1054B000191101204042FFF709FC039000239B468D
:1054C0002CE000230393F9E70C239946AB11039AD0
:1054D00053431D224946521A134101335B1098462B
:1054E000202252428B1821D422009A401700230018
:1054F0004A4693401E004346D917009A019B4046F6
:1055000000F004FF34003D00241A8D415B464A46FA
:10551000934043449B4653469B1A9A465346002B5E
:105520000EDD53460C2BCFDCD146CFE720235B1A90
:105530002200DA4013002A008A4017001F43D6E7F2
:10554000009A019BAB4209DC01D1A24206D8009A25
:10555000019BA41A9D4101239C46E344009A019BB0
:10556000AB4209DC01D1A24206D8009A019BA41AE1
:105570009D4101239C46E344002D0FDB002D16DBEB
:105580000F9B002B01D05A461A602000290005B05D
:105590003CBC90469946A246AB46F0BD009A019BA2
:1055A000A4185D4101235B429C46E344E6E7009A70
:1055B000019BA4185D4101235B429C46E344DFE765
:1055C000F0B5CE4600B588B005900E0011001F0062
:1055D00002000491F30F9C46330D5B055B0D350310
:1055E0002D0B80246403100025432900FA0F9146F7
:1055F0003A0D5205550D3A03120B049F02971443BE
:1056000003940E9A002A02D000220E9C2260444A83
:10561000934273D0002D74D0002B00D179E09542D5
:1056200000D179E06A1E9A4200DD77E041D06246FF
:10563000002A04D006000F0000217042B94107AAD9
:1056400001925B1B0093029A039BFFF721FF060068
:105650000F0003000C009B197C4122000298039963
:105660008C420BDC01D1834208D802998B420CD1C9
:10567000039B9A4209D1079BDB0706D5029B039C3B
:10568000F61AA741079B013307934B46002B02D024
:10569000079B5B4207930E9B002B01D0079A1A6071
:1056A000204A521B30003900FFF740FE05000E0073
:1056B00029E0039B99420EDD6346002B13D1029E25
:1056C000039FB6197F41801BB94106000F000133CB
:1056D00007931500D9E7029B039CA14201D1984290
:1056E000EAD8059D0FE0029E039FB6197F41361A46
:1056F0008F4101235B4207931500C6E700250A4E40
:1057000001E00025084E2800310008B004BC914695
:10571000F0BD00250026F6E7059DF4E7059DF2E7BC
:10572000FF070000330400000000F07F10B582B0D6
:1057300000240094FFF744FF02B010BD07B5604697
:10574000002800D100BE01880A0A0230DF2AFAD1FF
:10575000C9B2820804D3028840880004104300E0E4
:105760000068024A5050039007BD0000CCEB0120B6
:105770000FB403BC0CBCF0B50124E407634000E0A7
:10578000F0B50C0DCF0F661E3605891B640503D3DB
:10579000C943404200D30131640D03D0661CF60AB0
:1057A00007D0E41B00207F00791C89078912803C08
:1057B00024031D0DDF0F6E1E36059B1B6D0503D3E5
:1057C000DB43524200D301336D0D03D06E1CF60A49
:1057D00007D0ED1B00227F007B1C9B079B12803DA6
:1057E0002D032F1B661B58D4A446202E46DA2037E3
:1057F0001400BC401D00BD40F24033412A438018D4
:105800005941CB0F05D0C943C043002264425041E7
:10581000514162464D0D28D10D0D07D100281FD0F2
:10582000241940414941013A0D0DF9D0640006D3D5
:10583000013000D30131002C01D140084000013A71
:105840000BD4941CE40A04D112051144DB0719445B
:10585000F0BDD907204B194300E0D9070020F0BD67
:105860000029DDD1002CDBD1F0BD0132C607400894
:10587000CD0728434908002EE1D0D9E73C2E29DA8C
:10588000203E40371400BC4000D00124F2401443B5
:105890001A00BB401C43D317ACE7AC46202F08DAF4
:1058A00020360400B4400D00B540F840394128438B
:1058B000A5E73C2F0CDA203F40360400B44000D06E
:1058C0000124F84004430800B1400C43C117EAE743
:1058D00010001900002494E70000F07FF0B50C0DD3
:1058E000661E3605891BE60A6405640D02D0651C38
:1058F000ED0A04D0002001210905803C2403A446C0
:105900001C0D671E3F05DB1BE70A6405640D02D012
:10591000651CED0A04D0002201231B05803C2403F2
:105920007740644497B484B296B27443070C7E43C4
:10593000150C6F4380B26843361802D3012000046F
:105940003F183004350C00197D41844688B29AB264
:1059500050430C0C62431F0C7C438EB27E43921961
:1059600002D301263604A4191604170C3618674111
:1059700001BC81B29AB25143040C62431B0C5C43DC
:1059800080B25843121802D30120000424181004D6
:10599000130C401863412D185E410020474106BC9E
:1059A00088B293B258430C0C6343120C544389B22F
:1059B00051435B1802D301210904641819041A0C1D
:1059C000091862416D1856410020474118BCF90280
:1059D000720D1143F0026A0D1043ED020A0D03D15E
:1059E0006D1940414941013B124E9B1B7600B34269
:1059F0000ED26D0007D30130002671416646354353
:105A000001D1400840001B05C918E4072144F0BD3E
:105A10000BDA013306D1013004D101314F0D01D031
:105A20004908F2E7E1070020F0BD0136310500200A
:105A3000EBE70000FF030000F0B51C0D671E3F05FB
:105A4000DB1BE70A6405640D02D0661CF60A04D06D
:105A5000002201231B05803C2403D0252D060026AF
:105A6000F6432E661E096E66CE0FF619B44649003F
:105A70004F0D02D07E1CF60A03D000200021403FCB
:105A80003F033E1BB600B444013F7F05C91B4908D4
:105A90002E6F013676089C02950D25437543ED1354
:105AA0007543AD1301356D10F603761B0CB4CC02B3
:105AB000450D2C43A2B2B3B25A43270C7B43350C9D
:105AC0006F43A4B26C431B1902D3012424043F1971
:105AD0001C041D0CA4187D4124196D41009A91B23B
